:020000040000FA
:10000000A80700203D0300004B030000510300003F
:10001000570300005D0300006303000000000000C0
:100020000000000000000000000000006903000064
:100030006F0300000000000009030000A907000092
:1000400081030000810300008103000081030000A0
:100050008103000081030000810300008103000090
:100060008103000081030000810300008103000080
:100070008103000081030000810300008103000070
:100080008103000081030000810300008103000060
:100090008103000081030000810300008103000050
:1000A0008103000081030000810300008103000040
:1000B0008103000081030000810300008103000030
:1000C0008103000081030000810300008103000020
:1000D0008103000081030000810300008103000010
:1000E0008103000081030000000000008103000084
:1000F00081030000810300008103000081030000F0
:1001000081030000810300008103000081030000DF
:1001100000000000000000008103000081030000D7
:1001200081030000810300008103000081030000BF
:1001300081030000810300008103000081030000AF
:1001400000000000000000000000000000000000AF
:10015000810300008103000081030000810300008F
:10016000000000000000000000000000000000008F
:10017000000000000000000000000000000000007F
:10018000000000000000000000000000000000006F
:10019000000000000000000000000000000000005F
:1001A000000000000000000000000000000000004F
:1001B000810300008103000081030000810300002F
:1001C000810300008103000081030000810300001F
:1001D000810300008103000081030000810300000F
:1001E0008103000081030000810300000000000083
:1001F0000000000081030000810300008103000073
:1002000081030000810300000000000000000000E6
:1002100081030000810300008103000081030000CE
:1002200081030000810300008103000081030000BE
:1002300081030000810300008103000081030000AE
:10024000810300008103000081030000810300009E
:10025000810300008103000081030000810300008E
:1002600081030000810300008103000000F002F818
:1002700000F03AF80AA090E8000C82448344AAF106
:100280000107DA4501D100F02FF8AFF2090EBAE804
:100290000F0013F0010F18BFFB1A43F001031847BA
:1002A0002C0800004C080000103A24BF78C878C120
:1002B000FAD8520724BF30C830C144BF04680C606C
:1002C000704700000023002400250026103A28BFB4
:1002D00078C1FBD8520728BF30C148BF0B607047B8
:1002E0001FB51FBD10B510BD00F069F81146FFF72E
:1002F000F7FF00F091FB00F087F803B4FFF7F2FF7F
:1003000003BC00F08FF8000072B60A49096829B1F1
:100310002DE9F00F07490968C1F800D006490968BE
:10032000D1F800D004490968024A1160BDE8F00F15
:1003300062B67047200000201C000020174880474C
:10034000174800470020002123E00020022120E080
:10035000002003211DE0002004211AE000200521D7
:1003600017E00020062114E000200B2111E00020FE
:100370000C210EE000200E210BE000200F2108E0F0
:1003800000205FF0FF3104E006480749074A084BA8
:100390007047DFF820D000F0E5F9FEE77D080000A7
:1003A0006D02000098030020A8070020A803002089
:1003B000A8030020A80700207047704770477546C3
:1003C00000F02CF8AE4605006946534620F00700C1
:1003D000854618B020B5FFF7D7FFBDE820404FF0A5
:1003E00000064FF000074FF000084FF0000B21F01F
:1003F0000701AC46ACE8C009ACE8C009ACE8C009EC
:10040000ACE8C0098D46704710B50446AFF30080D4
:100410002046BDE81040FFF770BF0000004870475D
:100420003803002001491820ABBEFEE72600020079
:10043000704700000C48006840F020000A4908603E
:100440000A48C06E40F020000849C86608480068A5
:1004500040F00E00064908600648006840F00E00B3
:10046000044908607047000008E60F4000E00F40B4
:1004700000D405401CD505400020014908617047A3
:1004800000D00540042001490861704700D00540B4
:10049000002001490862704700D00540082001494A
:1004A0000862704700D0054000200149886070470D
:1004B00000D00540022001498860704700D0054007
:1004C00000B5024672B608480068426007480178E5
:1004D000012088400649096881430548016000F011
:1004E00021F862B600BD000020000020240000209A
:1004F0002800002030BF704730B504460D4606483E
:10050000006840F47F00044908602B4622460349F6
:10051000034800F089F830BD20ED00E0C50A000076
:100520002C0000201948006818B9002018490870EC
:1005300017E000BF16480078401C154908700846AF
:10054000007814490978884202DD012010490870BA
:100550000F480178012088400C49096808400028AC
:10056000E8D00D480A49097850F821000B49086085
:10057000084600680A490968884205D009480068A9
:1005800040F08050074908607047000028000020B4
:100590002400002025000020B40200201C000020C0
:1005A0002000002004ED00E010B500F005F872B660
:1005B000FFF7B8FF62B610BD70B500F0FDF8174840
:1005C00000686422B0FBF2F1481EB0F1807F00D3D6
:1005D0001BE0481E4FF0E022506150170722002810
:1005E00004DB53071C0E0E4B1C5406E053071D0E74
:1005F0000C4B00F00F04241F1D5500BF00204FF0CE
:10060000E02290610720106100BF064808300068B2
:1006100060F07F4003490831086070BD1800002079
:1006200000E400E018ED00E0F0B504460D46D618F1
:10063000F608F0004FF08077061F30463760061F3F
:10064000304635600E27061F304637600C27061FE0
:10065000304637600327061F304637600227061FE3
:10066000304637600127061F304637600027061FD7
:10067000304637600B27061F304637600A27061FB3
:10068000304637600927061F304637600827061FA7
:10069000304637600727061F304637600627061F9B
:1006A000304637600527061F304637600427061F8F
:1006B00030463760206000266660114602E0104E2A
:1006C0000E60091D8142FAD10E4E3678202E16DAC0
:1006D0000D4E0C4F3F7846F827400A4E3678002ED4
:1006E00008DD084E37780126BE40084F3F683E437C
:1006F000064F3E60034E3678761C024F3E70F0BDCA
:10070000DDCCBBAA25000020B40200202800002078
:10071000002001201AE0104951F820104968A1B1C9
:100720000D4951F820104968491E0B4A52F8202003
:100730005160094951F82010496831B901218140BF
:10074000064A12681143054A1160401C04490978A1
:100750008842E0D370470000B40200202800002047
:100760002500002000BF00BF00BF00BF00BFBFF3D7
:100770004F8F00BF00BF00BF0948006800F4E06071
:1007800008490843001D0649086000BF00BF00BFBC
:10079000BFF34F8F00BF00BF00BF00BF00BFFDE72A
:1007A0000CED00E00000FA0510B5FFF7B1FF72B6DE
:1007B000FFF7B8FE62B610BD70B52D48046E056F28
:1007C00005F0004050B305F4006040B1C5F30211DC
:1007D000C4F3831000F0A4F82649086002E026481C
:1007E0002449086004F48000002840D005F400602B
:1007F00048B120480168C5F3C550401CB1FBF0F07A
:100800001C49086033E01B480168C5F3C550401C13
:10081000B1FBF0F040081749086028E004F40060DC
:1008200040B1C4F30111C4F3841000F079F8114908
:10083000086002E010480F49086004F48000B0B17D
:1008400004F4006048B10B480168C4F3C350401C75
:10085000B1FBF0F00749086009E006480168C4F3FD
:10086000C350401CB1FBF0F040080249086070BD65
:1008700000E00F40180000200084D71708B51F487B
:100880001F4908671F4808661F4808661F48086711
:100890000020009002E00098401C00900098B0F505
:1008A0007A7FF8D31A48164908661A480867002064
:1008B000009002E00098401C00900098B0F57A7F0C
:1008C000F8D315480E49086600BF0D48006D00F0CA
:1008D00040004028F9D11148094908664FF0C0701E
:1008E00008670020009002E00098401C009042F24F
:1008F000107100988842F7D308BD000010288007C7
:1009000000E00F40D13A8E07422D9E010028800161
:10091000420D9E0100088001420DDE014205DE010C
:1009200002462D4831B101294CD002294CD003296F
:100930004FD14BE0172A43D2DFE802F00C0E11131F
:1009400016181B1D20232527292B2E303335373928
:100950003B3D3F00214833E04FF4E11030E02048B8
:100960002EE04FF416102BE01E4829E04FF46110E2
:1009700026E01D4824E04FF47A1021E04FF4960061
:100980001EE01A481CE01A481AE01A4818E01A48F3
:1009900016E04FF4E10013E0184811E04FF4FA00BC
:1009A0000EE017480CE00C480AE0164808E016482C
:1009B00006E0164804E0164802E04FF47A0000BF53
:1009C00000BF06E0044804E0124802E047F230505D
:1009D00000BF00BF70470000001BB70040420F007F
:1009E00080841E00999E360000093D00404B4C005B
:1009F00000204E00808D5B0000C05D0000127A0078
:100A0000809698000080BB00C0E8CE00647ADA00CF
:100A10000024F400C0C62D0010B5FFF70BFDA02187
:100A20000C48FFF769FDA0230B4A0C490C48FFF75F
:100A3000FBFDA0230B4A0C490C48FFF7F5FDA02352
:100A40000B4A0C490C48FFF7EFFDFFF7ADFD002006
:100A500010BD000014020020340000207D0A0000B8
:100A600000000020D4000020950A000008000020AB
:100A700074010020AD0A00001000002009E0FFF71B
:100A80000DFD1920FFF71CFDFFF702FD4B20FFF7BE
:100A900017FDF4E709E0FFF7F5FC3220FFF710FD42
:100AA000FFF7EAFC2120FFF70BFDF4E709E0FFF771
:100AB00001FD2120FFF704FDFFF7F6FC3C20FFF7C6
:100AC000FFFCF4E701E0FFF715FDFCE7EC0A00008E
:100AD0000000002034000000A8020000200B0000ED
:100AE0003400002074070000C40200000000000071
:100AF00000000000000000000000000000000000F6
:100B00000000000080F0FA02000000000000000079
:100B100000000000000000000000000000000000D5
:040000050000033DB7
:00000001FF
